:060000000A128A11E82F2C
:10001600F501F11F0F2810281728F009F109F00A39
:100026000319F10A0130F500F31F1A281B282228AC
:10003600F209F309F20A0319F30A0130F506F6018B
:10004600F70170087104031929282A285F2801304E
:10005600F400362801300310F00DF10DFF3E031DAC
:100066002E280130F407F11F39283A282D280130AF
:100076000310F60DF70DFF3E031D3B2871087302B2
:10008600031D472870087202031C4A284B28522871
:100096007008F2027108031CF303F30276140130B0
:1000A6000310F10CF00CFF3E031D53280130F4023F
:1000B600031D5E285F283A287508031963286428FB
:1000C6006928F609F709F60A0319F70A7708F1000D
:1000D6007608F0000800C0300A128A15F4240A12C5
:1000E6008A11831203135F08F3005E08F2005D08AD
:1000F600F1005C08F0004130F7007830F60000307F
:10010600F5000030F4000A128A15B7260A128A1181
:10011600031C8E288F28B2284130F3008C30F20061
:100126000030F1000030F000831203135F08F7007F
:100136005E08F6005D08F5005C08F4000A128A15F0
:10014600B7260A128A11031CA928AA28B228013048
:10015600F3000A128A1508250A128A112D2983121C
:1001660003135F08F3005E08F2005D08F1005C0807
:10017600F0004130F7008C30F600CC30F500CD3081
:10018600F4000A128A15B7260A128A11031CCC2813
:10019600CD28F0284130F300A430F2000030F10001
:1001A6000030F000831203135F08F7005E08F600C4
:1001B6005D08F5005C08F4000A128A15B7260A12D3
:1001C6008A11031CE728E828F0281F30F3000A12DA
:1001D6008A1508250A128A112D29831203135F082E
:1001E600F3005E08F2005D08F1005C08F0004130A3
:1001F600F700A430F600CC30F500CD30F4000A123A
:100206008A15B7260A128A11031C0A290B292D29D9
:100216004130F300B430F2000030F1000030F0005D
:10022600831203135F08F7005E08F6005D08F50009
:100236005C08F4000A128A15B7260A128A11031CF2
:10024600252926292D291030F3000A128A1508259A
:100256000A128A110800831203130608E200F0301E
:10026600E2053B2A80300A128A15F4240A128A1102
:1002760083120313E50165084D3E840083130008CD
:100286000A128A15BB240A128A110130831203133B
:10029600E50708306502031C512952293E294130E1
:1002A600DF008C30DE000030DD000030DC008C30FA
:1002B6000A128A15F4240A128A11831203135F089C
:1002C600C8005E08C7005D08C6005C08C5000A12C3
:1002D6008A1559270A128A1156300A128A15BB2422
:1002E6000A128A11C0300A128A15F4240A128A11D7
:1002F600831203135F08A3005E08A2005D08A10035
:100306005C08A0000A128A116E200A128A11492A74
:100316003D30F300CC30F200CC30F100CD30F000AF
:100326005F08F7005E08F6005D08F5005C08F4005B
:100336000A128A114A220A128A11730883120313B7
:10034600DF007208DE007108DD007008DC00413055
:10035600F300B430F2000030F1000030F0005F0826
:10036600F7005E08F6005D08F5005C08F4000A1266
:100376008A15B7260A128A110318C229C329CD295C
:10038600413083120313DF00B430DE000030DD009D
:100396000030DC00C0300A128A15F4240A128A11D1
:1003A600831203135F08C8005E08C7005D08C60015
:1003B6005C08C5000A128A1559270A128A117B2978
:1003C6003D30AB00CC30AA00CC30A900CD30A8001F
:1003D6005F08AF005E08AE005D08AD005C08AC00CB
:1003E6000A128A1524250A128A11831203132B086E
:1003F600DF002A08DE002908DD002808DC005F0887
:10040600F3005E08F2005D08F1005C08F000413080
:10041600F7007830F6000030F5000030F4000A12DC
:100426008A15B7260A128A1103181A2A1B2A252AA0
:10043600413083120313DF007830DE000030DD0028
:100446000030DC00C0300A128A15F4240A128A1120
:10045600D3294130DF008C30DE000030DD00003073
:10046600DC00C0300A128A15F4240A128A11D32934
:100476006208703A03192C2AC03A0319E329603A34
:1004860003198B29303A03193529492A08007308BC
:10049600F8008030F805730883120313A0002007C4
:1004A600FA00F21F572A582A592A7A147A08031989
:1004B6005D2A5E2A6E2A7A0A031D622A632A6B2A3D
:1004C6000030F3000030F2000030F1000030F000A0
:1004D600F217F301762A0030F3000030F200003004
:1004E600F1000030F0007708F9008030F90579084E
:1004F600780603197F2A802A812A78177708A000B0
:100506002007F900F61F882A892A8A2A7914790889
:1005160003198E2A8F2A9F2A790A031D932A942A61
:100526009C2A0030F7000030F6000030F50000305D
:10053600F400F617F701A72A0030F7000030F6009E
:100546000030F5000030F4007A0879020318AC2A6E
:10055600AD2AD12A781FB02AB12AB32A8030F806EC
:100566007A08FB007908FA007B08F9007008FB009E
:100576007408F0007B08F4007108FB007508F100B0
:100586007B08F5007208FB007608F2007B08F6008F
:100596007308FB007708F3007B08F700FB01790876
:1005A600A000A1012108A3007A082002A200031CD2
:1005B600A3032308803AFF0080307F02031DE52A4B
:1005C6001A302202031CE82AE92A202B7308720437
:1005D60071047004031DF02AF22A0130F32A003058
:1005E600FB000030F3000030F2000030F100003074
:1005F600F0007908FA00262B7B1C022B032B0C2B10
:100606007B0883120313A0000310200C0138FB00A3
:100616000E2B0310FB0C701C112B122B132BFB172C
:10062600013083120313A000730DF30CF20CF10CCE
:10063600F00CA00B172B0130FA0779087A02031C7D
:10064600252B262BFF2A781B292B2A2B752B7A087C
:10065600031D2E2B2F2B382B0030F3000030F20019
:100666000030F1000030F000A52C7408F007750882
:1006760003110318013E0319412BF10776080311F4
:100686000318013E0319482BF207770803110318D4
:10069600013E03194F2BF307731C522B532B2D2CA2
:1006A6007B1C562B572B602B7B0883120313A00051
:1006B6000310200C0138FB00622B0310FB0C701C8E
:1006C600652B662B672BFB17013083120313A000E3
:1006D600730DF30CF20CF10CF00CA00B6B2B01302C
:1006E600FA072D2C7308803AFF007708803A7F02BC
:1006F600031D872B76087202031D872B750871026E
:10070600031D872B7408700203188A2B8B2BE42B8E
:10071600FF3083120313A000FF30A100FF30A200B8
:10072600FF30A3007408A4007508A5007608A6008B
:100736007708A7007008A4027108031C710FA42B88
:10074600A52BA5027208031C720FAA2BAB2BA602BF
:100756007308031C730FB02BB12BA7022408A00744
:1007660025080318250FB82BB92BA107260803184F
:10077600260FBE2BBF2BA20727080318270AA3079D
:100786002308F3002208F2002108F1002008F000F7
:100796008030F8067B03FF3AFB007B08031DD42B51
:1007A600D52BF22B0130F007003003180130F1078A
:1007B600003003180130F207003003180130F30748
:1007C600F22B7408F0027508031C750FF102760807
:1007D600031C760FF2027708031C770FF3027308E7
:1007E600720471047004031DF92BFA2B292C7B0863
:1007F600031DFE2BFF2B292C0030F3000030F200E6
:100806000030F1000030F000A52C013083120313F4
:10081600A0000310F00DF10DF20DF30DA00B0C2C42
:10082600FB1F162C172C182C70147B1C1B2C1C2C35
:10083600202C03147B0DFB00222C0310FB0D7A08E1
:100846000319262C272C292C0130FA02F21F2C2CF6
:100856002D2C082CF901FB1F312C322C402C7B0847
:100866007F390319372C382C3B2C0130F900402CEA
:10087600701C3E2C3F2C402C382C79080319442C34
:10088600452C792C0130F007003003180130F107B0
:10089600003003180130F207003003180130F30767
:1008A600731C562C572C792C700883120313A00046
:1008B6007108A1007208A2007308A3000130A40009
:1008C600230DA30CA20CA10CA00CA40B632C2308D3
:1008D600F3002208F2002108F1002008F0007A0A4D
:1008E6000319762C772C792C0130FA077A0A03192A
:1008F6007D2C7E2C832C7A08031D822C832C912C34
:100906000030F3000030F2000030F1000030F0005B
:100916007A08031D8F2C902C912CF8017A1C942CAC
:10092600952C972CF217992C7F30F2057A088312B2
:100936000313A0000310200CF300F81FA32CA42C13
:10094600A52CF3170800831203132308A800803090
:10095600A8052308F9007907AE00A21FB32CB42C12
:10096600B52C2E142E080319B92CBA2CC92C2E0A14
:10097600031DBE2CBF2CC72C0030A3000030A200E4
:100986000030A1000030A000A217D12C0030A30037
:100996000030A2000030A1000030A00027088039F6
:1009A600A8062708F9007907AD00A61FDB2CDC2C6A
:1009B600DD2C2D142D080319E12CE22CF12C2D0A27
:1009C600031DE62CE72CEF2C0030A7000030A60014
:1009D6000030A5000030A400A617F92C0030A700AF
:1009E6000030A6000030A5000030A4002D08031931
:1009F600FD2CFE2C032D2E08031D022D032D0C2D80
:100A06000030A3000030A2000030A1000030A0009A
:100A1600E72F2008F00026080A128A1548250A1230
:100A26008A11710883120313B4007008B3003308E7
:100A3600F900FA01FB01FC017C08AC007B08AB0065
:100A46007A08AA007908A9003408F900FA01FB011E
:100A5600FC017C08B2007B08B1007A08B000790876
:100A6600AF002108F00025080A128A1548250A1247
:100A76008A11710883120313B4007008B300330897
:100A8600F900FA01FB01FC017908A9077A080311AC
:100A96000318013E0319502DAA077B0803110318FA
:100AA600013E0319572DAB077C0803110318013EBD
:100AB60003195E2DAC073408F900FA01FB01FC01AD
:100AC6007908AF077A0803110318013E03196C2D44
:100AD600B0077B0803110318013E0319732DB107F4
:100AE6007C0803110318013E03197A2DB207220868
:100AF600F00024080A128A1548250A128A1171087C
:100B060083120313B4007008B3003308F900FA0126
:100B1600FB01FC017908A9077A0803110318013EB5
:100B26000319962DAA077B0803110318013E031922
:100B36009D2DAB077C0803110318013E0319A42D54
:100B4600AC073408F900FA01FB01FC017908AF078C
:100B56007A0803110318013E0319B22DB0077B086A
:100B660003110318013E0319B92DB1077C080311BF
:100B76000318013E0319C02DB2070830F90003100F
:100B8600A90DAA0DAB0DAC0DF90BC22D2108F00075
:100B960024080A128A1548250A128A117108831236
:100BA6000313B4007008B3003308F9003408FA00E0
:100BB600FB01FC017908A9077A0803110318013E15
:100BC6000319E62DAA077B0803110318013E031932
:100BD600ED2DAB077C0803110318013E0319F42D14
:100BE600AC072008F00025080A128A1548250A12C3
:100BF6008A11710883120313B4007008B300330816
:100C0600F9003408FA00FB01FC017908A9077A0803
:100C160003110318013E0319112EAA077B080311BD
:100C26000318013E0319182EAB077C08031103189D
:100C3600013E03191F2EAC070830F9000310A90D59
:100C4600AA0DAB0DAC0DF90B212E2008F0002408DF
:100C56000A128A1548250A128A117108831203138B
:100C6600B4007008B3003308F9003408FA00FB0139
:100C7600FC017908A9077A0803110318013E031934
:100C8600452EAA077B0803110318013E03194C2EB3
:100C9600AB077C0803110318013E0319532EAC075A
:100CA6002108F00026080A128A1548250A128A1118
:100CB600710883120313B4007008B3003308F900F7
:100CC6003408FA00FB01FC017908AF077A08031122
:100CD6000318013E0319702EB0077B080311031891
:100CE600013E0319772EB1077C0803110318013E54
:100CF60003197E2EB2072208F00025080A128A156B
:100D060048250A128A11710883120313B400700869
:100D1600B3003308F9003408FA00FB01FC01790836
:100D2600AF077A0803110318013E03199B2EB0077B
:100D36007B0803110318013E0319A22EB1077C0894
:100D460003110318013E0319A92EB2072208F00069
:100D560026080A128A1548250A128A117108831272
:100D66000313B4007008B3003308F9003408FA001E
:100D7600FB01FC0108300310F90DFA0DFB0DFC0D0B
:100D8600FF3E031DBE2E7908AF077A08031103182C
:100D9600013E0319CF2EB0077B0803110318013E4D
:100DA6000319D62EB1077C0803110318013E031957
:100DB600DD2EB2072908F9002A08FA002B08FB00E5
:100DC6002C08FC0018300310FC0CFB0CFA0CF90C78
:100DD600FF3E031DE62E7908AF077A0803110318B4
:100DE600013E0319F72EB0077B0803110318013ED5
:100DF6000319FE2EB1077C0803110318013E0319DF
:100E0600052FB2070830F9000310A90DAA0DAB0D86
:100E1600AC0DF90B072F2E082D07F900FA01FA0D74
:100E26007908823EB3007A080318013EFF3EB400FB
:100E3600392F0130F9000310AF0DB00DB10DB20D11
:100E4600F90B1E2FAC1F282F292F2A2F2F14013004
:100E5600F9000310A90DAA0DAB0DAC0DF90B2C2F43
:100E6600FF30B3070318B40AFF30B407B11F3C2F95
:100E76003D2F1C2FAD01AC1F412F422F5E2FFF309F
:100E86002905F900FF302A05FA00FF302B05FB0083
:100E96007F302C05FC007C087B047A047904031956
:100EA600552F562F592F0130AD005E2F2F1C5C2F6A
:100EB6005D2F5E2F562F2D080319622F632F942F57
:100EC6000130AF07003003180130B00700300318B7
:100ED6000130B107003003180130B207321C742FFD
:100EE600752F942F2F08F9003008FA003108FB00FF
:100EF6003208FC000130FD007C0DFC0CFB0CFA0CEA
:100F0600F90CFD0B7F2F7C08B2007B08B1007A0834
:100F1600B0007908AF000130B3070318B40A0030F7
:100F2600B4073408803AFF0080307F02031D9D2FEE
:100F3600FF303302031CA02FA12FAC2F7F3083126A
:100F46000313B2008030B1000030B0000030AF00B3
:100F5600DD2F831203133408803AFF0080307F02AE
:100F6600031DB72F013033020318BA2FBB2FC72F2B
:100F7600003083120313B2000030B1000030B0001D
:100F86000030AF00A801DD2F831203133308AE0033
:100F9600FF30AF05FF30B0057F30B1050030B20538
:100FA6002E1CD62FD72FD82FB1172E08F9000310D5
:100FB600790CB2002808B2043208A3003108A20056
:100FC6003008A1002F08A000080083136030FD0040
:100FD6000C30FE00E130FF004D3084000A128A1505
:100FE600D2240A128A11E001E101E201E301E401DF
:100FF600E50183010A128A15AD2C08308A0004081F
:10100600840A820700344234413454345434203440
:101016004C344F3457342034203420342034203498
:101026002034003442344134543454342034483467
:101036004934473448342034203420342034203492
:101046000034423441345434543420344D3445341D
:101056004434493455344D3420342034203400345B
:10195A000A128A153E260A128A150A128A112E219D
:10196A000A128A15B22C0A128A110028F20083126E
:10197A0003138715720888000714FE308705143090
:10198A00F1007930F000F00BC82CF10BC82CCD2CEB
:10199A0008007E088A007F0882000A128A15CE246F
:1019AA000A128A158000840A04087D060319003485
:1019BA00FF0A0319FE0AD22C42344134543420342B
:1019CA0056344F344C3454342034203420342034A8
:1019DA00203456340034003400348C344134F2005C
:1019EA00F730831203138705720888000714FE3044
:1019FA0087051430F1007930F000F00B022DF10B5D
:101A0A00022D072D0800172D730884000A128A1563
:101A1A0000200A128A150A128A15BB240A128A158C
:101A2A000130F307730884000A128A1500200A128B
:101A3A008A15003A031D222D232D092D0800803016
:101A4A0083120313AB062F08F3002E08F2002D08A9
:101A5A00F1002C08F0002B08F7002A08F6002908E4
:101A6A00F5002808F4000A128A114A220A128A1575
:101A7A00730883120313AB007208AA007108A90045
:101A8A007008A8000800F800F401F5017008F200D7
:101A9A00F3017208F6007308F700781C552D562DCD
:101AAA005C2D7608F4070318F50A7708F507013064
:101ABA000310F60DF70DFF3E031D5D2D0310F80C04
:101ACA007808031D692D6A2D522D7508F1007408D6
:101ADA00F000080083120313C401C21F752D762D6E
:101AEA007D2DC109C209C10A0319C20A0130C40005
:101AFA00C01F802D812D862DBF09C009BF0A031979
:101B0A00C00A3F08400403198B2D8C2DB92D0130D2
:101B1A00C300982D01300310BF0DC00DFF3E031DF9
:101B2A00902D0130C307C01F9B2D9C2D8F2D40087F
:101B3A004202031DA22D3F084102031CA52DA62D1A
:101B4A00AC2D3F08C1024008031CC203C202013087
:101B5A000310C00CBF0CFF3E031DAD2D0130C302A4
:101B6A00031DB82DB92D9C2D44080319BD2DBE2D7A
:101B7A00C32DC109C209C10A0319C20A4208C00019
:101B8A004108BF000800031083120313370D380DF4
:101B9A00BE003E08031DD22DD32DDC2D0030B80027
:101BAA000030B7000030B6000030B5003D2E3508D1
:101BBA00B9003608BA003708BB003808BC001F3025
:101BCA000310BC0CBB0CBA0CB90CFF3E031DE52D6F
:101BDA003908BD00B717FF30B505FF30B605FF302D
:101BEA00B7050030B8059630BE02BE1FFD2DFE2D8A
:101BFA00162E3E08803A973E0318042E052E062E0E
:101C0A00D32D01300310B80CB70CB60CB50CFF3E3F
:101C1A00031D072E0130BE07031D142E152E062E96
:101C2A002D2E20303E02031C1B2E1C2E282ED32DB7
:101C3A000130B9000310B50DB60DB70DB80DB90BCB
:101C4A001F2E0130BE023E08031D2C2E2D2E1D2EE6
:101C5A003D080319312E322E3D2EB509B609B709B2
:101C6A00B809B50A0319B60A0319B70A0319B80A53
:101C7A0008008316031387018801F03086007F303D
:101C8A00810038300A128A15F4240A128A15C330E0
:101C9A00F400CD30F300F30B502EF40B502E3030FD
:101CAA000A128A15F4240A128A15C330F400CD30B8
:101CBA00F300F30B5E2EF40B5E2E30300A128A15F7
:101CCA00F4240A128A15C330F400CD30F300F30B62
:101CDA006C2EF40B6C2E30300A128A15F4240A1278
:101CEA008A15C330F400CD30F300F30B7A2EF40BCF
:101CFA007A2E38300A128A15F4240A128A15C33049
:101D0A00F400CD30F300F30B882EF40B882E063046
:101D1A000A128A15F4240A128A15C330F400CD3047
:101D2A00F300F30B962EF40B962E0C300A128A153A
:101D3A00F4240A128A15C330F400CD30F300F30BF1
:101D4A00A42EF40BA42E01300A128A15F4240A12C6
:101D5A008A15C330F400CD30F300F30BB22EF40B26
:101D6A00B22E080000307005F80000307105F90045
:101D7A0080307205FA007F307305FB007B087A0415
:101D8A0079047804031DCA2ECB2ED32E0030F3001B
:101D9A000030F2000030F1000030F000003074052D
:101DAA00F80000307505F90080307605FA007F30BA
:101DBA007705FB007B087A0479047804031DE62E74
:101DCA00E72EEF2E0030F7000030F6000030F50065
:101DDA000030F400F31FF22EF32E172F0030F80014
:101DEA000030F9000030FA008030FB007008F80279
:101DFA007108031C710F022F032FF9027208031CCA
:101E0A00720F082F092FFA027308031C730F0E2F83
:101E1A000F2FFB027B08F3007A08F2007908F10021
:101E2A007808F000F71F1A2F1B2F3F2F0030F800F9
:101E3A000030F9000030FA008030FB007408F80224
:101E4A007508031C750F2A2F2B2FF9027608031C1D
:101E5A00760F302F312FFA027708031C770F362FAF
:101E6A00372FFB027B08F7007A08F6007908F5009D
:101E7A007808F4008030F3068030F706770873029A
:101E8A00031D512F76087202031D512F7508710226
:101E9A00031D512F740870020318542F552F572F02
:101EAA000310582F03140800831203134808B800BC
:101EBA004708B7004608B6004508B5000A128A1551
:101ECA00C8250A128A15831203133608CC0035086E
:101EDA00CB000A30BF000030C0004808A7004708FE
:101EEA00A6004608A5004508A4004130A3002030FA
:101EFA00A2000030A1000030A0000A128A11A62414
:101F0A000A128A15831203132308B8002208B7009D
:101F1A002108B6002008B5000A128A15C8250A1237
:101F2A008A15831203133608C2003508C1000A1243
:101F3A008A156F250A128A15831203134008CA00EC
:101F4A003F08C90088300A128A15F4240A128A1531
:101F5A003D300A128A15BB240A128A15831203130A
:101F6A004C08803AFF0080307F02031DBE2F0A30E2
:101F7A004B02031CC12FC22FD82F0A30F0000030A9
:101F8A00F100831203134C08F3004B08F2000A1203
:101F9A008A110B200A128A157008303E0A128A1515
:101FAA00BB240A128A150A3083120313BF000030B9
:101FBA00C0004C08C2004B08C1000A128A156F25DE
:101FCA000A128A15831203133F08303E0A128A1531
:101FDA00BB240A128A152E300A128A15BB240A1249
:101FEA008A15831203134908303E0A128A15BB2444
:061FFA000A128A1508001E
:02400E003B3F36
:00000001FF
