:060000000A128A11F32F21
:100C080064008001840A0406031900340406052ED2
:100C1800F200831203138715720888000714FE3048
:100C28008705C330F100CD30F000F00B192EF10B21
:100C3800192E0800F200F730831203138705720893
:100C480088000714FE308705C330F100CD30F0006E
:100C5800F00B2C2EF10B2C2E0800F900F801791C52
:100C6800362E372E392E7708F8070310F70D0310A4
:100C7800F90C7908031D412E422E332E78080800FE
:100C8800831203133508803AB8003708803A3802CF
:100C9800031D502E360834020318532E542E652E89
:100CA8002D300A128A110C260A128A118312031394
:100CB80034083602B9003508031C350A3702BA0071
:100CC800752E8312031336083402B9003708031C43
:100CD800370A3502BA002B300A128A110C260A127A
:100CE8008A11831203133A08FB003908FA000A1222
:100CF8008A118C270A128A110800F401F50170087C
:100D080071040319882E892EBE2E0130F600952E07
:100D180001300310F00DF10DFF3E031D8D2E013043
:100D2800F607F11F982E992E8C2E01300310F40D22
:100D3800F50DFF3E031D9A2E71087302031DA62EA2
:100D480070087202031CA92EAA2EB12E7008F20296
:100D58007108031CF303F302741401300310F10C3F
:100D6800F00CFF3E031DB22E0130F602031DBD2E0E
:100D7800BE2E992E7508F1007408F00008000A12BA
:100D88008A1125270A128A11C83083120313AF006B
:100D98000030B0006430AD000030AE003D30B2002D
:100DA8002D30B10080300A128A111E260A128A11CB
:100DB800C830FA000030FB000A128A118C270A1288
:100DC8008A1183300A128A111E260A128A112D30BE
:100DD8000A128A110C260A128A1184300A128A1100
:100DE8001E260A128A116430FA000030FB000A122B
:100DF8008A118C270A128A1187300A128A111E2634
:100E08000A128A113D300A128A110C260A128A1116
:100E180088300A128A111E260A128A11C8308312D3
:100E28000313B4000030B5006430B6000030B700DA
:100E38000A128A1144260A128A11212F0A128A11CB
:100E48000028831603138701880130300A128A119B
:100E58001E260A128A11C330F400CD30F300F30BBA
:100E6800332FF40B332F30300A128A111E260A1240
:100E78008A11C330F400CD30F300F30B412FF40B8B
:100E8800412F30300A128A111E260A128A11C330E5
:100E9800F400CD30F300F30B4F2FF40B4F2F383005
:100EA8000A128A111E260A128A11C330F400CD30A4
:100EB800F300F30B5D2FF40B5D2F06300A128A1135
:100EC8001E260A128A11C330F400CD30F300F30B4A
:100ED8006B2FF40B6B2F0C300A128A111E260A1284
:100EE8008A11C330F400CD30F300F30B792FF40BE3
:100EF800792F01300A128A111E260A128A11C3306C
:100F0800F400CD30F300F30B872FF40B872F080084
:100F18000130FD007B0883120313A8007A08A7009C
:100F2800C92FF630F7002808F3002708F2000A3026
:100F3800F0000030F1000A128A1181260A128A1183
:100F480070080A128A1131260A128A1183120313B1
:100F58002707FC007D08203E84007C08831380005E
:100F68000130FD070A30F0000030F1002808F300D6
:100F78002708F2000A128A1181260A128A117108BA
:100F880083120313A8007008A70027082804031D6C
:100F9800CE2FCF2F952F7D08203E8400831380010C
:100FA8007D08FF3EFD00ED2F7D08203E8400831361
:100FB8000008303E83120313A500003003180130E7
:100FC800A60025080A128A110C260A128A11013075
:100FD800FD027D08031DF12FF22FD82F080083137F
:100FE8002030840034300A128A1104260A128A1129
:080FF80083010A128A11C32EC5
:02400E003B3F36
:00000001FF
