:060000000A128A11F32F21
:100C820064008001840A0406031900340406422E1B
:100C9200F200831203138715720888000714FE30CE
:100CA2008705C330F100CD30F000F00B562EF10B6A
:100CB200562E0800F900F801791C602E612E632E71
:100CC2007708F8070310F70D0310F90C7908031DD4
:100CD2006B2E6C2E5D2E78080800F200F73083121E
:100CE20003138705720888000714FE308705C33096
:100CF200F100CD30F000F00B7C2EF10B7C2E0800C1
:100D0200F401F501700871040319882E892EBE2E94
:100D12000130F600952E01300310F00DF10DFF3E6B
:100D2200031D8D2E0130F607F11F982E992E8C2E61
:100D320001300310F40DF50DFF3E031D9A2E7108CC
:100D42007302031DA62E70087202031CA92EAA2E7E
:100D5200B12E7008F2027108031CF303F30274143B
:100D620001300310F10CF00CFF3E031DB22E0130D6
:100D7200F602031DBD2EBE2E992E7508F1007408D1
:100D8200F00008000A128A118C270A128A11D43044
:100D920083120313AF000130B000FD30AD0000300C
:100DA200AE003D30B2002B30B10080300A128A1101
:100DB2006E260A128A11D430FA000130FB000A12A0
:100DC2008A1125270A128A1183300A128A116E2685
:100DD2000A128A112B300A128A1149260A128A1122
:100DE20084300A128A116E260A128A11FD30FA0024
:100DF2000030FB000A128A1125270A128A11873055
:100E02000A128A116E260A128A113D300A128A11BA
:100E120049260A128A11D13083120313AB00023021
:100E2200AC0088300A128A116E260A128A11D13059
:100E3200FA000230FB000A128A1125270A128A11CF
:100E4200212F0A128A1100280130FD007B0883122B
:100E52000313A8007A08A700622FF630F7002808CB
:100E6200F3002708F2000A30F0000030F1000A1205
:100E72008A1181260A128A1170080A128A115B26C7
:100E82000A128A11831203132707FC007D08203EF1
:100E920084007C08831380000130FD070A30F000D3
:100EA2000030F1002808F3002708F2000A128A1124
:100EB20081260A128A11710883120313A80070088E
:100EC200A70027082804031D672F682F2E2F7D08EF
:100ED200203E8400831380017D08FF3EFD00862FA3
:100EE2007D08203E840083130008303E83120313E2
:100EF200A500003003180130A60025080A128A1145
:100F020049260A128A110130FD027D08031D8A2F2B
:100F12008B2F712F0800831603138701880130304D
:100F22000A128A116E260A128A11C330F400CD30D9
:100F3200F300F30B9A2FF40B9A2F30300A128A1116
:100F42006E260A128A11C330F400CD30F300F30B7F
:100F5200A82FF40BA82F30300A128A116E260A121B
:100F62008A11C330F400CD30F300F30BB62FF40B2B
:100F7200B62F38300A128A116E260A128A11C3302D
:100F8200F400CD30F300F30BC42FF40BC42F063062
:100F92000A128A116E260A128A11C330F400CD3069
:100FA200F300F30BD22FF40BD22F0C300A128A115A
:100FB2006E260A128A11C330F400CD30F300F30B0F
:100FC200E02FF40BE02F01300A128A116E260A126A
:100FD2008A11C330F400CD30F300F30BEE2FF40B83
:100FE200EE2F080083132030840034300A128A1155
:0E0FF20041260A128A1183010A128A11C32EA7
:02400E003B3F36
:00000001FF
