:060000000A128A11C42F50
:100D8200423448344134563441344E344134F9000B
:100D92008312031387157908880007140730F800B7
:100DA2007D30F700F70BD32EF80BD32E83120313EB
:100DB20007100800F90083120313871179088800CD
:100DC20007140730F8007D30F700F70BE62EF80B1A
:100DD200E62E83120313071008007E088A007F089C
:100DE20082000A128A11EE260A128A118000840AEF
:100DF20004087D0603190034FF0A0319FE0AF22EC5
:100E0200CF34CE34CD34CC34CB34CA34C934C834E4
:100E1200C734C634C534C434C334C234C134C03414
:100E22008034813482348334843485348634873404
:100E3200883489348A348B348C348D348E348F34B4
:100E42000A128A1165270A128A11FD017D08323EB3
:100E52008400831300080A128A11DB260A128A11FF
:100E62007D08703E840000080A128A11C8260A1200
:100E72008A110130FD0707307D02031C412F422FEA
:100E8200272FFD017D08223E8400831300080A12E9
:100E92008A11DB260A128A117630FC007D08FC02D8
:100EA2007C08840000080A128A11C8260A128A11D4
:100EB2000130FD0707307D02031C602F612F432F95
:100EC200612F0A128A1100288316031387018801F1
:100ED20030300A128A11DB260A128A118230FB0094
:100EE200DD30FA00FA0B732FFB0B732F782F3030A3
:100EF2000A128A11DB260A128A118230FB00DD30C7
:100F0200FA00FA0B822FFB0B822F872F30300A1246
:100F12008A11DB260A128A118230FB00DD30FA00C8
:100F2200FA0B912FFB0B912F962F38300A128A1150
:100F3200DB260A128A118230FB00DD30FA00FA0B3E
:100F4200A02FFB0BA02FA52F0C300A128A11DB2633
:100F52000A128A118230FB00DD30FA00FA0BAF2F41
:100F6200FB0BAF2FB42F01300A128A11DB260A12B3
:100F72008A118230FB00DD30FA00FA0BBE2FFB0B28
:100F8200BE2FC32F080083134030FD000730FE0040
:100F92000130FF00203084000A128A11F2260A1260
:100FA2008A110A128A11C1260A128A11F0000A1243
:100FB2008A11C2260A128A11F1000A128A11C32664
:100FC2000A128A11F2000A128A11C4260A128A111E
:100FD200F3000A128A11C5260A128A11F4000A12B3
:100FE2008A11C6260A128A11F5000A128A11C72628
:0E0FF2000A128A11F60083010A128A11212FB9
:02400E007B3FF6
:00000001FF
