:060000000A128A11DE2F36
:100A1E000A128A11DE250A128A110A128A11492631
:100A2E000A128A11142D0A128A11002853344534E1
:100A3E00543420345334503444343A342034203433
:100A4E0020342034723470346D34F2008312031368
:100A5E008715720888000714FE308705C330F10031
:100A6E00CD30F000F00B392DF10B392D0800F200CE
:100A7E00F730831203138705720888000714FE30BF
:100A8E008705C330F100CD30F000F00B4C2DF10B8B
:100A9E004C2D0800F200F101721C562D572D592DC8
:100AAE007008F1070310F00D0310F20C7208031D0D
:100ABE00612D622D532D710808007E088A007F0873
:100ACE0082000A128A1164250A128A118000840A91
:100ADE0004087D0603190034FF0A0319FE0A682D67
:100AEE00F401F501701C7C2D7D2D832D7208F40709
:100AFE000318F50A7308F50701300310F20DF30D14
:100B0E00FF3E031D842D01300310F10CF00CFF3E4F
:100B1E00031D8B2D70087104031D962D972D792DB5
:100B2E007508F1007408F0000800FA01FB01760860
:100B3E0077040319A32DA42DD92D0130FC00B02D5F
:100B4E0001300310F60DF70DFF3E031DA82D0130E9
:100B5E00FC07F71FB32DB42DA72D01300310FA0D8E
:100B6E00FB0DFF3E031DB52D77087902031DC12D28
:100B7E0076087802031CC42DC52DCC2D7608F802FC
:100B8E007708031CF903F9027A1401300310F70CED
:100B9E00F60CFF3E031DCD2D0130FC02031DD82D9A
:100BAE00D92DB42D7B08F7007A08F60008008316BD
:100BBE00031387018801F03086007F3081003030CA
:100BCE000A128A113E250A128A11C330F400CD3062
:100BDE00F300F30BF02DF40BF02D30300A128A11C6
:100BEE003E250A128A11C330F400CD30F300F30B08
:100BFE00FE2DF40BFE2D30300A128A113E250A12FC
:100C0E008A11C330F400CD30F300F30B0C2EF40B2D
:100C1E000C2E38300A128A113E250A128A11C33060
:100C2E00F400CD30F300F30B1A2EF40B1A2E06300F
:100C3E000A128A113E250A128A11C330F400CD30F1
:100C4E00F300F30B282EF40B282E0C300A128A1107
:100C5E003E250A128A11C330F400CD30F300F30B97
:100C6E00362EF40B362E01300A128A113E250A1248
:100C7E008A11C330F400CD30F300F30B442EF40B85
:100C8E00442E0800831203130608AC00F030AC05A6
:100C9E00E42E80300A128A113E250A128A11FD01B5
:100CAE007D082F3E8400831300080A128A112C251A
:100CBE000A128A110130FD0708307D02031C682ECE
:100CCE00692E572E8C300A128A113E250A128A116D
:100CDE000C30FD007D082F3E8400831300080A129D
:100CEE008A112C250A128A110130FD070F307D0260
:100CFE00031C822E832E712E88300A128A113E25F5
:100D0E000A128A11831203132908BF002808BE0095
:100D1E000A128A11F3260A128A11F22E0130A8073E
:100D2E000318A90A0030A9071330290289300319C4
:100D3E002802031CA32EA42EA82E8830A800133040
:100D4E00A90088300A128A113E250A128A118312CE
:100D5E0003132908BF002808BE000A128A11F326C1
:100D6E000A128A11F22E0130A8020030031CA903C8
:100D7E00A90228082904031DC52EC62ECA2E01302D
:100D8E00A8000030A90088300A128A113E250A12E6
:100D9E008A11AE2EA801A90188300A128A113E25A9
:100DAE000A128A11003083120313BE00BF000A120A
:100DBE008A11F3260A128A11F22E2C08703A0319A0
:100DCE00D12EC03A0319BA2E603A0319952E303A35
:100DDE000319502EF22E0800E830F6000330F7000B
:100DEE00831203133F08F9003E08F8000A128A1115
:100DFE009C250A128A11760883120313C000C101C2
:100E0E004008A0004108A1006430F6000030F70051
:100E1E002108F1002008F0001830F200FC30F30039
:100E2E000A128A1177250A128A11831203133E08B9
:100E3E007007F8003F0803183F0A7107F9000A12FD
:100E4E008A119C250A128A11760883120313C00098
:100E5E00C1014008A2004108A3000A30F60000308C
:100E6E00F7002108F1002008F0001830F200FC30E5
:100E7E00F3000A128A1177250A128A11700883125A
:100E8E000313C0007108C1002308F1002208F0000E
:100E9E009C30F200FF30F3000A128A1177250A12F5
:100EAE008A117008831203134007C20071080318D9
:100EBE00710A4107C3003E084207F8003F080318B5
:100ECE003F0A4307F9000A128A119C250A128A1159
:100EDE00760883120313C400C5014408A400450814
:100EEE00A5001830F00020080A128A1151250A12A6
:100EFE008A1183120313C0009C30F00022080A12DC
:100F0E008A1151250A128A1183120313C100F63079
:100F1E00F00024080A128A1151250A128A1183122E
:100F2E000313410740073E07C200C3014208A60053
:100F3E004308A70088300A128A113E250A128A1128
:100F4E00831203132008303E0A128A112C250A122E
:100F5E008A1189300A128A113E250A128A118312C9
:100F6E0003132208303E0A128A112C250A128A1106
:100F7E008A300A128A113E250A128A11831203132D
:100F8E002408303E0A128A112C250A128A118B303F
:100F9E000A128A113E250A128A1183120313260899
:100FAE00303E0A128A112C250A128A110800831368
:100FBE003E30FD000530FE001D30FF002F30840056
:100FCE000A128A1168250A128A11A001A101A20132
:100FDE00A301A401A501A601A701A801A901AA01C7
:100FEE00AB01AC01AD01AE01FD0183010A128A1104
:020FFE000F2DB5
:02400E003B3F36
:00000001FF
