:060000000A128A11F32F21
:100C620064008001840A0406031900340406322E4B
:100C7200F900F801791C3E2E3F2E412E7708F80725
:100C82000310F70D0310F90C7908031D492E4A2EA3
:100C92003B2E78080800F2008312031387157208AE
:100CA20088000714D630F000562E572EF00B552E22
:100CB2000000FE308312031387050630F100D7309F
:100CC200F000F00B622EF10B622E0800F200F730FA
:100CD200831203138705720888000714D630F000C8
:100CE200722E732EF00B712E0000FE30831203134E
:100CF20087050630F100D730F000F00B7E2EF10BA5
:100D02007E2E0800F401F5017008710403198A2E81
:100D12008B2EC02E0130F600972E01300310F00DFD
:100D2200F10DFF3E031D8F2E0130F607F11F9A2EA3
:100D32009B2E8E2E01300310F40DF50DFF3E031D88
:100D42009C2E71087302031DA82E70087202031CE8
:100D5200AB2EAC2EB32E7008F2027108031CF30303
:100D6200F302741401300310F10CF00CFF3E031D6A
:100D7200B42E0130F602031DBF2EC02E9B2E750825
:100D8200F1007408F00008000A128A118C270A1276
:100D92008A11D43083120313AF000130B000FD304A
:100DA200AD000030AE003D30B2002B30B1008030DB
:100DB2000A128A1167260A128A11D430FA00013007
:100DC200FB000A128A1127270A128A1183300A129B
:100DD2008A1167260A128A112B300A128A114C26AE
:100DE2000A128A1184300A128A1167260A128A119B
:100DF200FD30FA000030FB000A128A1127270A127E
:100E02008A1187300A128A1167260A128A113D3026
:100E12000A128A114C260A128A11D1308312031344
:100E2200AB000230AC0088300A128A1167260A121F
:100E32008A11D130FA000230FB000A128A112727E8
:100E42000A128A11232F0A128A1100280130FD008A
:100E52007B0883120313A8007A08A700642FF630D8
:100E6200F7002808F3002708F2000A30F0000030EB
:100E7200F1000A128A1183260A128A1170080A12D4
:100E82008A1139260A128A11831203132707FC00DA
:100E92007D08203E84007C08831380000130FD071A
:100EA2000A30F0000030F1002808F3002708F200B1
:100EB2000A128A1183260A128A11710883120313F5
:100EC200A8007008A70027082804031D692F6A2FAD
:100ED200302F7D08203E8400831380010130FD0203
:100EE200862F7D08203E840083130008303E831243
:100EF2000313A500003003180130A60025080A12CA
:100F02008A114C260A128A116F2F7D08031D8A2F1F
:100F12008B2F722F0800831603138701880130304C
:100F22000A128A1167260A128A11C330F400CD30E0
:100F3200F300F30B9A2FF40B9A2F30300A128A1116
:100F420067260A128A11C330F400CD30F300F30B86
:100F5200A82FF40BA82F30300A128A1167260A1222
:100F62008A11C330F400CD30F300F30BB62FF40B2B
:100F7200B62F38300A128A1167260A128A11C33034
:100F8200F400CD30F300F30BC42FF40BC42F063062
:100F92000A128A1167260A128A11C330F400CD3070
:100FA200F300F30BD22FF40BD22F0C300A128A115A
:100FB20067260A128A11C330F400CD30F300F30B16
:100FC200E02FF40BE02F01300A128A1167260A1271
:100FD2008A11C330F400CD30F300F30BEE2FF40B83
:100FE200EE2F080083132030840034300A128A1155
:0E0FF20031260A128A1183010A128A11C52EB5
:02400E007B3FF6
:00000001FF
