:060000000A128A11F32F21
:100BE000F200831203138715720888000714FE3081
:100BF0008705C330F100CD30F000F00BFD2DF10B77
:100C0000FD2D0800F200F7308312031387057208E8
:100C100088000714FE308705C330F100CD30F000A6
:100C2000F00B102EF10B102E080083120313A501F8
:100C300078087904031D1D2E1E2E4E2E30300A1208
:100C40008A11F0250A128A11682E2508203E840098
:100C50000A30F0000030F1007908F3007808F20063
:100C60000A128A1169260A128A117008303E83130B
:100C700080000A30F0000030F1007908F3007808B5
:100C8000F2000A128A11C0260A128A117108F900AC
:100C90007008F800013083120313A507780879045F
:100CA000031D532E542E252E612E0130A50225083A
:100CB000203E8400831300080A128A11F0250A12CC
:100CC0008A11831203132508031D672E682E552EE3
:100CD0000800F501F31F6D2E6E2E752EF209F30933
:100CE000F20A0319F30A0130F500F11F782E792E6C
:100CF0007E2EF009F109F00A0319F10A7008710457
:100D00000319832E842EB12E0130F400902E013071
:100D10000310F00DF10DFF3E031D882E0130F40786
:100D2000F11F932E942E872E71087302031D9A2EA5
:100D300070087202031C9D2E9E2EA42E7008F202D3
:100D40007108031CF303F30201300310F10CF00CE3
:100D5000FF3E031DA52E0130F402031DB02EB12E5F
:100D6000942E75080319B52EB62EBB2EF209F30981
:100D7000F20A0319F30A7308F1007208F000080080
:100D8000F501F11FC42EC52ECC2EF009F109F00A91
:100D90000319F10A0130F500F31FCF2ED02ED72E04
:100DA000F209F309F20A0319F30A0130F506F60114
:100DB000F701700871040319DE2EDF2E142F0130A5
:100DC000F400EB2E01300310F00DF10DFF3E031D7A
:100DD000E32E0130F407F11FEE2EEF2EE22E01304C
:100DE0000310F60DF70DFF3E031DF02E7108730280
:100DF000031DFC2E70087202031CFF2E002F072F0C
:100E00007008F2027108031CF303F3027614013038
:100E10000310F10CF00CFF3E031D082F0130F4020B
:100E2000031D132F142FEF2E75080319182F192FD8
:100E30001E2FF609F709F60A0319F70A7708F100D9
:100E40007608F0000800831603138701880130300C
:100E50000A128A1102260A128A11C330F400CD3018
:100E6000F300F30B312FF40B312F30300A128A11BB
:100E700002260A128A11C330F400CD30F300F30BBE
:100E80003F2FF40B3F2F30300A128A1102260A122C
:100E90008A11C330F400CD30F300F30B4D2FF40B67
:100EA0004D2F38300A128A1102260A128A11C330D5
:100EB000F400CD30F300F30B5B2FF40B5B2F063007
:100EC0000A128A1102260A128A11C330F400CD30A8
:100ED000F300F30B692FF40B692F0C300A128A11FF
:100EE00002260A128A11C330F400CD30F300F30B4E
:100EF000772FF40B772F01300A128A1102260A127B
:100F00008A11C330F400CD30F300F30B852FF40BBE
:100F1000852F08000A128A1123270A128A116430C9
:100F200083120313A8000030A900C830A6000030C7
:100F3000A7003D30FC0080300A128A1102260A12F6
:100F40008A116430F8000030F9000A128A1115265F
:100F50000A128A1183300A128A1102260A128A1191
:100F60002D300A128A11F0250A128A1184300A12D1
:100F70008A1102260A128A11C830F8000030F900DE
:100F80000A128A1115260A128A1187300A128A114A
:100F900002260A128A113D300A128A11F0250A121D
:100FA0008A119C30FA00FF30FB0088300A128A1147
:100FB00002260A128A112D300A128A11F0250A120D
:100FC0008A11FA09FB09FA0A0319FB0A7B08F900DE
:100FD0007A08F8000A128A1115260A128A11EF2FD0
:100FE0000A128A110028FA01FB01FC018312031383
:100FF000A601A701A801A90183010A128A118A2F5B
:02400E003B3F36
:00000001FF
